{
  "_format": "hh-sol-artifact-1",
  "contractName": "PokemonFactory",
  "sourceName": "contracts/PokemonFactory.sol",
  "abi": [
    {
      "anonymous": false,
      "inputs": [
        {
          "indexed": false,
          "internalType": "string",
          "name": "_name",
          "type": "string"
        },
        {
          "indexed": false,
          "internalType": "uint256",
          "name": "_id",
          "type": "uint256"
        }
      ],
      "name": "eventNewPokemon",
      "type": "event"
    },
    {
      "inputs": [
        {
          "internalType": "string",
          "name": "_abilityName",
          "type": "string"
        },
        {
          "internalType": "string",
          "name": "_abilityDescription",
          "type": "string"
        },
        {
          "internalType": "uint256",
          "name": "_pokemonId",
          "type": "uint256"
        }
      ],
      "name": "addAbilityToPokemon",
      "outputs": [],
      "stateMutability": "nonpayable",
      "type": "function"
    },
    {
      "inputs": [
        {
          "internalType": "string",
          "name": "_typeName",
          "type": "string"
        },
        {
          "internalType": "uint256",
          "name": "_pokemonId",
          "type": "uint256"
        }
      ],
      "name": "addPokemonTypeToPokemon",
      "outputs": [],
      "stateMutability": "nonpayable",
      "type": "function"
    },
    {
      "inputs": [
        {
          "internalType": "string",
          "name": "_weaknessName",
          "type": "string"
        },
        {
          "internalType": "uint256",
          "name": "_pokemonId",
          "type": "uint256"
        }
      ],
      "name": "addWeaknessToPokemon",
      "outputs": [],
      "stateMutability": "nonpayable",
      "type": "function"
    },
    {
      "inputs": [
        {
          "internalType": "string",
          "name": "_name",
          "type": "string"
        },
        {
          "internalType": "uint256",
          "name": "_id",
          "type": "uint256"
        }
      ],
      "name": "createPokemon",
      "outputs": [],
      "stateMutability": "nonpayable",
      "type": "function"
    },
    {
      "inputs": [],
      "name": "getAllPokemons",
      "outputs": [
        {
          "components": [
            {
              "internalType": "uint256",
              "name": "id",
              "type": "uint256"
            },
            {
              "internalType": "string",
              "name": "name",
              "type": "string"
            },
            {
              "components": [
                {
                  "internalType": "string",
                  "name": "name",
                  "type": "string"
                },
                {
                  "internalType": "string",
                  "name": "description",
                  "type": "string"
                }
              ],
              "internalType": "struct PokemonFactory.Ability[]",
              "name": "abilities",
              "type": "tuple[]"
            },
            {
              "internalType": "string[]",
              "name": "types",
              "type": "string[]"
            },
            {
              "internalType": "string[]",
              "name": "weaknesses",
              "type": "string[]"
            }
          ],
          "internalType": "struct PokemonFactory.Pokemon[]",
          "name": "",
          "type": "tuple[]"
        }
      ],
      "stateMutability": "view",
      "type": "function"
    },
    {
      "inputs": [
        {
          "internalType": "uint256",
          "name": "_pokemonId",
          "type": "uint256"
        }
      ],
      "name": "getPokemonById",
      "outputs": [
        {
          "components": [
            {
              "internalType": "uint256",
              "name": "id",
              "type": "uint256"
            },
            {
              "internalType": "string",
              "name": "name",
              "type": "string"
            },
            {
              "components": [
                {
                  "internalType": "string",
                  "name": "name",
                  "type": "string"
                },
                {
                  "internalType": "string",
                  "name": "description",
                  "type": "string"
                }
              ],
              "internalType": "struct PokemonFactory.Ability[]",
              "name": "abilities",
              "type": "tuple[]"
            },
            {
              "internalType": "string[]",
              "name": "types",
              "type": "string[]"
            },
            {
              "internalType": "string[]",
              "name": "weaknesses",
              "type": "string[]"
            }
          ],
          "internalType": "struct PokemonFactory.Pokemon",
          "name": "",
          "type": "tuple"
        }
      ],
      "stateMutability": "view",
      "type": "function"
    },
    {
      "inputs": [],
      "name": "getResult",
      "outputs": [
        {
          "internalType": "uint256",
          "name": "product",
          "type": "uint256"
        },
        {
          "internalType": "uint256",
          "name": "sum",
          "type": "uint256"
        }
      ],
      "stateMutability": "pure",
      "type": "function"
    },
    {
      "inputs": [
        {
          "internalType": "uint256",
          "name": "",
          "type": "uint256"
        }
      ],
      "name": "pokemonToOwner",
      "outputs": [
        {
          "internalType": "address",
          "name": "",
          "type": "address"
        }
      ],
      "stateMutability": "view",
      "type": "function"
    },
    {
      "inputs": [
        {
          "internalType": "uint256",
          "name": "",
          "type": "uint256"
        }
      ],
      "name": "pokemons",
      "outputs": [
        {
          "internalType": "uint256",
          "name": "id",
          "type": "uint256"
        },
        {
          "internalType": "string",
          "name": "name",
          "type": "string"
        }
      ],
      "stateMutability": "view",
      "type": "function"
    }
  ],
  "bytecode": "0x608060405234801561001057600080fd5b50611cea806100206000396000f3fe608060405234801561001057600080fd5b50600436106100935760003560e01c80635e916790116100665780635e9167901461011c578063858310791461013a57806396a848b41461016b578063bd1a8d6514610187578063de292789146101b757610093565b80630163003d146100985780630a3bd50b146100b45780631fb59788146100d05780632f7467b3146100ec575b600080fd5b6100b260048036038101906100ad919061108c565b6101d6565b005b6100ce60048036038101906100c9919061108c565b610222565b005b6100ea60048036038101906100e591906110e8565b6103f7565b005b61010660048036038101906101019190611173565b61047d565b60405161011391906111e1565b60405180910390f35b6101246104b0565b604051610131919061159f565b60405180910390f35b610154600480360381019061014f9190611173565b610964565b60405161016292919061161a565b60405180910390f35b6101856004803603810190610180919061108c565b610a10565b005b6101a1600480360381019061019c9190611173565b610a5c565b6040516101ae91906116d5565b60405180910390f35b6101bf610e9c565b6040516101cd9291906116f7565b60405180910390f35b6000808281526020019081526020016000206004018290806001815401808255809150506001900390600052602060002001600090919091909150908161021d919061192c565b505050565b818160008111610267576040517f08c379a000000000000000000000000000000000000000000000000000000000815260040161025e90611a4a565b60405180910390fd5b60028251116102ab576040517f08c379a00000000000000000000000000000000000000000000000000000000081526004016102a290611adc565b60405180910390fd5b8360008085815260200190815260200160002060010190816102cd919061192c565b5082600080858152602001908152602001600020600001819055506003839080600181540180825580915050600190039060005260206000200160009091909190915055336001600085815260200190815260200160002060006101000a81548173ffffffffffffffffffffffffffffffffffffffff021916908373ffffffffffffffffffffffffffffffffffffffff160217905550600260003373ffffffffffffffffffffffffffffffffffffffff1673ffffffffffffffffffffffffffffffffffffffff16815260200190815260200160002060008154809291906103b390611b2b565b91905055507fe5f48608b5ec34f116295e5097cca3b35f9d2d9910f7d474d1f610737d1d56a484846040516103e9929190611b73565b60405180910390a150505050565b6000808281526020019081526020016000206002016040518060400160405280858152602001848152509080600181540180825580915050600190039060005260206000209060020201600090919091909150600082015181600001908161045f919061192c565b506020820151816001019081610475919061192c565b505050505050565b60016020528060005260406000206000915054906101000a900473ffffffffffffffffffffffffffffffffffffffff1681565b6060600060038054905067ffffffffffffffff8111156104d3576104d2610f2b565b5b60405190808252806020026020018201604052801561050c57816020015b6104f9610ecd565b8152602001906001900390816104f15790505b50905060005b60038054905081101561095c576000806003838154811061053657610535611ba3565b5b906000526020600020015481526020019081526020016000206040518060a0016040529081600082015481526020016001820180546105749061174f565b80601f01602080910402602001604051908101604052809291908181526020018280546105a09061174f565b80156105ed5780601f106105c2576101008083540402835291602001916105ed565b820191906000526020600020905b8154815290600101906020018083116105d057829003601f168201915b5050505050815260200160028201805480602002602001604051908101604052809291908181526020016000905b82821015610771578382906000526020600020906002020160405180604001604052908160008201805461064e9061174f565b80601f016020809104026020016040519081016040528092919081815260200182805461067a9061174f565b80156106c75780601f1061069c576101008083540402835291602001916106c7565b820191906000526020600020905b8154815290600101906020018083116106aa57829003601f168201915b505050505081526020016001820180546106e09061174f565b80601f016020809104026020016040519081016040528092919081815260200182805461070c9061174f565b80156107595780601f1061072e57610100808354040283529160200191610759565b820191906000526020600020905b81548152906001019060200180831161073c57829003601f168201915b5050505050815250508152602001906001019061061b565b50505050815260200160038201805480602002602001604051908101604052809291908181526020016000905b8282101561084a5783829060005260206000200180546107bd9061174f565b80601f01602080910402602001604051908101604052809291908181526020018280546107e99061174f565b80156108365780601f1061080b57610100808354040283529160200191610836565b820191906000526020600020905b81548152906001019060200180831161081957829003601f168201915b50505050508152602001906001019061079e565b50505050815260200160048201805480602002602001604051908101604052809291908181526020016000905b828210156109235783829060005260206000200180546108969061174f565b80601f01602080910402602001604051908101604052809291908181526020018280546108c29061174f565b801561090f5780601f106108e45761010080835404028352916020019161090f565b820191906000526020600020905b8154815290600101906020018083116108f257829003601f168201915b505050505081526020019060010190610877565b505050508152505082828151811061093e5761093d611ba3565b5b6020026020010181905250808061095490611b2b565b915050610512565b508091505090565b600060205280600052604060002060009150905080600001549080600101805461098d9061174f565b80601f01602080910402602001604051908101604052809291908181526020018280546109b99061174f565b8015610a065780601f106109db57610100808354040283529160200191610a06565b820191906000526020600020905b8154815290600101906020018083116109e957829003601f168201915b5050505050905082565b60008082815260200190815260200160002060030182908060018154018082558091505060019003906000526020600020016000909190919091509081610a57919061192c565b505050565b610a64610ecd565b60008211610aa7576040517f08c379a0000000000000000000000000000000000000000000000000000000008152600401610a9e90611c1e565b60405180910390fd5b6000808381526020019081526020016000206040518060a001604052908160008201548152602001600182018054610ade9061174f565b80601f0160208091040260200160405190810160405280929190818152602001828054610b0a9061174f565b8015610b575780601f10610b2c57610100808354040283529160200191610b57565b820191906000526020600020905b815481529060010190602001808311610b3a57829003601f168201915b5050505050815260200160028201805480602002602001604051908101604052809291908181526020016000905b82821015610cdb5783829060005260206000209060020201604051806040016040529081600082018054610bb89061174f565b80601f0160208091040260200160405190810160405280929190818152602001828054610be49061174f565b8015610c315780601f10610c0657610100808354040283529160200191610c31565b820191906000526020600020905b815481529060010190602001808311610c1457829003601f168201915b50505050508152602001600182018054610c4a9061174f565b80601f0160208091040260200160405190810160405280929190818152602001828054610c769061174f565b8015610cc35780601f10610c9857610100808354040283529160200191610cc3565b820191906000526020600020905b815481529060010190602001808311610ca657829003601f168201915b50505050508152505081526020019060010190610b85565b50505050815260200160038201805480602002602001604051908101604052809291908181526020016000905b82821015610db4578382906000526020600020018054610d279061174f565b80601f0160208091040260200160405190810160405280929190818152602001828054610d539061174f565b8015610da05780601f10610d7557610100808354040283529160200191610da0565b820191906000526020600020905b815481529060010190602001808311610d8357829003601f168201915b505050505081526020019060010190610d08565b50505050815260200160048201805480602002602001604051908101604052809291908181526020016000905b82821015610e8d578382906000526020600020018054610e009061174f565b80601f0160208091040260200160405190810160405280929190818152602001828054610e2c9061174f565b8015610e795780601f10610e4e57610100808354040283529160200191610e79565b820191906000526020600020905b815481529060010190602001808311610e5c57829003601f168201915b505050505081526020019060010190610de1565b50505050815250509050919050565b6000806000600190506000600290508082610eb79190611c3e565b93508082610ec59190611c80565b925050509091565b6040518060a0016040528060008152602001606081526020016060815260200160608152602001606081525090565b6000604051905090565b600080fd5b600080fd5b600080fd5b600080fd5b6000601f19601f8301169050919050565b7f4e487b7100000000000000000000000000000000000000000000000000000000600052604160045260246000fd5b610f6382610f1a565b810181811067ffffffffffffffff82111715610f8257610f81610f2b565b5b80604052505050565b6000610f95610efc565b9050610fa18282610f5a565b919050565b600067ffffffffffffffff821115610fc157610fc0610f2b565b5b610fca82610f1a565b9050602081019050919050565b82818337600083830152505050565b6000610ff9610ff484610fa6565b610f8b565b90508281526020810184848401111561101557611014610f15565b5b611020848285610fd7565b509392505050565b600082601f83011261103d5761103c610f10565b5b813561104d848260208601610fe6565b91505092915050565b6000819050919050565b61106981611056565b811461107457600080fd5b50565b60008135905061108681611060565b92915050565b600080604083850312156110a3576110a2610f06565b5b600083013567ffffffffffffffff8111156110c1576110c0610f0b565b5b6110cd85828601611028565b92505060206110de85828601611077565b9150509250929050565b60008060006060848603121561110157611100610f06565b5b600084013567ffffffffffffffff81111561111f5761111e610f0b565b5b61112b86828701611028565b935050602084013567ffffffffffffffff81111561114c5761114b610f0b565b5b61115886828701611028565b925050604061116986828701611077565b9150509250925092565b60006020828403121561118957611188610f06565b5b600061119784828501611077565b91505092915050565b600073ffffffffffffffffffffffffffffffffffffffff82169050919050565b60006111cb826111a0565b9050919050565b6111db816111c0565b82525050565b60006020820190506111f660008301846111d2565b92915050565b600081519050919050565b600082825260208201905092915050565b6000819050602082019050919050565b61123181611056565b82525050565b600081519050919050565b600082825260208201905092915050565b60005b83811015611271578082015181840152602081019050611256565b60008484015250505050565b600061128882611237565b6112928185611242565b93506112a2818560208601611253565b6112ab81610f1a565b840191505092915050565b600081519050919050565b600082825260208201905092915050565b6000819050602082019050919050565b600060408301600083015184820360008601526112ff828261127d565b91505060208301518482036020860152611319828261127d565b9150508091505092915050565b600061133283836112e2565b905092915050565b6000602082019050919050565b6000611352826112b6565b61135c81856112c1565b93508360208202850161136e856112d2565b8060005b858110156113aa578484038952815161138b8582611326565b94506113968361133a565b925060208a01995050600181019050611372565b50829750879550505050505092915050565b600081519050919050565b600082825260208201905092915050565b6000819050602082019050919050565b60006113f4838361127d565b905092915050565b6000602082019050919050565b6000611414826113bc565b61141e81856113c7565b935083602082028501611430856113d8565b8060005b8581101561146c578484038952815161144d85826113e8565b9450611458836113fc565b925060208a01995050600181019050611434565b50829750879550505050505092915050565b600060a0830160008301516114966000860182611228565b50602083015184820360208601526114ae828261127d565b915050604083015184820360408601526114c88282611347565b915050606083015184820360608601526114e28282611409565b915050608083015184820360808601526114fc8282611409565b9150508091505092915050565b6000611515838361147e565b905092915050565b6000602082019050919050565b6000611535826111fc565b61153f8185611207565b93508360208202850161155185611218565b8060005b8581101561158d578484038952815161156e8582611509565b94506115798361151d565b925060208a01995050600181019050611555565b50829750879550505050505092915050565b600060208201905081810360008301526115b9818461152a565b905092915050565b6115ca81611056565b82525050565b600082825260208201905092915050565b60006115ec82611237565b6115f681856115d0565b9350611606818560208601611253565b61160f81610f1a565b840191505092915050565b600060408201905061162f60008301856115c1565b818103602083015261164181846115e1565b90509392505050565b600060a0830160008301516116626000860182611228565b506020830151848203602086015261167a828261127d565b915050604083015184820360408601526116948282611347565b915050606083015184820360608601526116ae8282611409565b915050608083015184820360808601526116c88282611409565b9150508091505092915050565b600060208201905081810360008301526116ef818461164a565b905092915050565b600060408201905061170c60008301856115c1565b61171960208301846115c1565b9392505050565b7f4e487b7100000000000000000000000000000000000000000000000000000000600052602260045260246000fd5b6000600282049050600182168061176757607f821691505b60208210810361177a57611779611720565b5b50919050565b60008190508160005260206000209050919050565b60006020601f8301049050919050565b600082821b905092915050565b6000600883026117e27fffffffffffffffffffffffffffffffffffffffffffffffffffffffffffffffff826117a5565b6117ec86836117a5565b95508019841693508086168417925050509392505050565b6000819050919050565b600061182961182461181f84611056565b611804565b611056565b9050919050565b6000819050919050565b6118438361180e565b61185761184f82611830565b8484546117b2565b825550505050565b600090565b61186c61185f565b61187781848461183a565b505050565b5b8181101561189b57611890600082611864565b60018101905061187d565b5050565b601f8211156118e0576118b181611780565b6118ba84611795565b810160208510156118c9578190505b6118dd6118d585611795565b83018261187c565b50505b505050565b600082821c905092915050565b6000611903600019846008026118e5565b1980831691505092915050565b600061191c83836118f2565b9150826002028217905092915050565b61193582611237565b67ffffffffffffffff81111561194e5761194d610f2b565b5b611958825461174f565b61196382828561189f565b600060209050601f8311600181146119965760008415611984578287015190505b61198e8582611910565b8655506119f6565b601f1984166119a486611780565b60005b828110156119cc578489015182556001820191506020850194506020810190506119a7565b868310156119e957848901516119e5601f8916826118f2565b8355505b6001600288020188555050505b505050505050565b7f4964206d7573742062652067726561746572207468616e203000000000000000600082015250565b6000611a346019836115d0565b9150611a3f826119fe565b602082019050919050565b60006020820190508181036000830152611a6381611a27565b9050919050565b7f4e616d652773206c656e677468206d757374206265206772617465722074686160008201527f6e20320000000000000000000000000000000000000000000000000000000000602082015250565b6000611ac66023836115d0565b9150611ad182611a6a565b604082019050919050565b60006020820190508181036000830152611af581611ab9565b9050919050565b7f4e487b7100000000000000000000000000000000000000000000000000000000600052601160045260246000fd5b6000611b3682611056565b91507fffffffffffffffffffffffffffffffffffffffffffffffffffffffffffffffff8203611b6857611b67611afc565b5b600182019050919050565b60006040820190508181036000830152611b8d81856115e1565b9050611b9c60208301846115c1565b9392505050565b7f4e487b7100000000000000000000000000000000000000000000000000000000600052603260045260246000fd5b7f496e76616c696420496400000000000000000000000000000000000000000000600082015250565b6000611c08600a836115d0565b9150611c1382611bd2565b602082019050919050565b60006020820190508181036000830152611c3781611bfb565b9050919050565b6000611c4982611056565b9150611c5483611056565b9250828202611c6281611056565b91508282048414831517611c7957611c78611afc565b5b5092915050565b6000611c8b82611056565b9150611c9683611056565b9250828201905080821115611cae57611cad611afc565b5b9291505056fea2646970667358221220edd7e2adf4e71c83fe29bf3ad1675c6e44e06c9dc3bab41b9c78b49c5aa803e264736f6c63430008120033",
  "linkReferences": {},
  "deployedLinkReferences": {}
}